{
  "contractName": "User",
  "abi": [
    {
      "constant": true,
      "inputs": [
        {
          "name": "",
          "type": "uint256"
        }
      ],
      "name": "userIds",
      "outputs": [
        {
          "name": "",
          "type": "address"
        }
      ],
      "payable": false,
      "stateMutability": "view",
      "type": "function"
    },
    {
      "constant": true,
      "inputs": [
        {
          "name": "",
          "type": "address"
        }
      ],
      "name": "userDetails",
      "outputs": [
        {
          "name": "userId",
          "type": "uint256"
        },
        {
          "name": "state",
          "type": "uint8"
        },
        {
          "name": "level",
          "type": "uint8"
        },
        {
          "name": "age",
          "type": "uint256"
        },
        {
          "name": "gender",
          "type": "uint8"
        },
        {
          "name": "permanentAddress",
          "type": "string"
        },
        {
          "name": "createdBy",
          "type": "address"
        },
        {
          "name": "createdAt",
          "type": "uint256"
        }
      ],
      "payable": false,
      "stateMutability": "view",
      "type": "function"
    },
    {
      "constant": true,
      "inputs": [],
      "name": "creatorAdmin",
      "outputs": [
        {
          "name": "",
          "type": "address"
        }
      ],
      "payable": false,
      "stateMutability": "view",
      "type": "function"
    },
    {
      "inputs": [
        {
          "name": "_userId",
          "type": "uint256"
        },
        {
          "name": "_age",
          "type": "uint256"
        },
        {
          "name": "_gender",
          "type": "uint8"
        },
        {
          "name": "_permanentAddress",
          "type": "string"
        }
      ],
      "payable": false,
      "stateMutability": "nonpayable",
      "type": "constructor"
    },
    {
      "anonymous": false,
      "inputs": [
        {
          "indexed": false,
          "name": "_newAdmin",
          "type": "address"
        },
        {
          "indexed": false,
          "name": "_newAdminId",
          "type": "uint256"
        }
      ],
      "name": "RequestedNewAdmin",
      "type": "event"
    },
    {
      "anonymous": false,
      "inputs": [
        {
          "indexed": false,
          "name": "_newUser",
          "type": "address"
        },
        {
          "indexed": false,
          "name": "_newUserId",
          "type": "uint256"
        }
      ],
      "name": "RequestedNewUser",
      "type": "event"
    },
    {
      "anonymous": false,
      "inputs": [
        {
          "indexed": false,
          "name": "_approvedUser",
          "type": "address"
        }
      ],
      "name": "ApprovedUser",
      "type": "event"
    },
    {
      "constant": false,
      "inputs": [
        {
          "name": "_newAdmin",
          "type": "address"
        },
        {
          "name": "_newAdminId",
          "type": "uint256"
        },
        {
          "name": "_age",
          "type": "uint256"
        },
        {
          "name": "_gender",
          "type": "uint8"
        },
        {
          "name": "_pAddress",
          "type": "string"
        }
      ],
      "name": "requestNewAdmin",
      "outputs": [
        {
          "name": "success",
          "type": "bool"
        }
      ],
      "payable": false,
      "stateMutability": "nonpayable",
      "type": "function"
    },
    {
      "constant": false,
      "inputs": [
        {
          "name": "_newUser",
          "type": "address"
        },
        {
          "name": "_newUserId",
          "type": "uint256"
        },
        {
          "name": "_age",
          "type": "uint256"
        },
        {
          "name": "_gender",
          "type": "uint8"
        },
        {
          "name": "_pAddress",
          "type": "string"
        }
      ],
      "name": "requestNewUser",
      "outputs": [
        {
          "name": "success",
          "type": "bool"
        }
      ],
      "payable": false,
      "stateMutability": "nonpayable",
      "type": "function"
    },
    {
      "constant": false,
      "inputs": [
        {
          "name": "_approvedUser",
          "type": "address"
        }
      ],
      "name": "approveUser",
      "outputs": [
        {
          "name": "success",
          "type": "bool"
        }
      ],
      "payable": false,
      "stateMutability": "nonpayable",
      "type": "function"
    },
    {
      "constant": true,
      "inputs": [
        {
          "name": "_userAddress",
          "type": "address"
        }
      ],
      "name": "getUserDetails",
      "outputs": [
        {
          "name": "",
          "type": "uint256"
        },
        {
          "name": "",
          "type": "uint8"
        },
        {
          "name": "",
          "type": "uint8"
        },
        {
          "name": "",
          "type": "uint256"
        },
        {
          "name": "",
          "type": "uint8"
        },
        {
          "name": "",
          "type": "string"
        }
      ],
      "payable": false,
      "stateMutability": "view",
      "type": "function"
    }
  ],
  "bytecode": "0x606060405234156200001057600080fd5b604051620015f7380380620015f783398101604052808051906020019091908051906020019091908051906020019091908051820191905050336000806101000a81548173ffffffffffffffffffffffffffffffffffffffff021916908373ffffffffffffffffffffffffffffffffffffffff160217905550336002600086815260200190815260200160002060006101000a81548173ffffffffffffffffffffffffffffffffffffffff021916908373ffffffffffffffffffffffffffffffffffffffff1602179055506101006040519081016040528085815260200160026003811115620000fc57fe5b81526020016002808111156200010e57fe5b81526020018481526020018360018111156200012657fe5b81526020018281526020013373ffffffffffffffffffffffffffffffffffffffff16815260200142815250600160003373ffffffffffffffffffffffffffffffffffffffff1673ffffffffffffffffffffffffffffffffffffffff1681526020019081526020016000206000820151816000015560208201518160010160006101000a81548160ff02191690836003811115620001bf57fe5b021790555060408201518160010160016101000a81548160ff02191690836002811115620001e957fe5b02179055506060820151816002015560808201518160030160006101000a81548160ff021916908360018111156200021d57fe5b021790555060a0820151816004019080519060200190620002409291906200029f565b5060c08201518160050160006101000a81548173ffffffffffffffffffffffffffffffffffffffff021916908373ffffffffffffffffffffffffffffffffffffffff16021790555060e08201518160060155905050505050506200034e565b828054600181600116156101000203166002900490600052602060002090601f016020900481019282601f10620002e257805160ff191683800117855562000313565b8280016001018555821562000313579182015b8281111562000312578251825591602001919060010190620002f5565b5b50905062000322919062000326565b5090565b6200034b91905b80821115620003475760008160009055506001016200032d565b5090565b90565b611299806200035e6000396000f300606060405260043610610083576000357c0100000000000000000000000000000000000000000000000000000000900463ffffffff1680630112d2d6146100885780634635fd681461013a57806348dec2a71461019d57806373b187b1146102f35780637b855bf0146103a5578063cc3d967b146103fa578063d624fdb6146104f9575b600080fd5b341561009357600080fd5b610120600480803573ffffffffffffffffffffffffffffffffffffffff1690602001909190803590602001909190803590602001909190803560ff1690602001909190803590602001908201803590602001908080601f0160208091040260200160405190810160405280939291908181526020018383808284378201915050505050509190505061054a565b604051808215151515815260200191505060405180910390f35b341561014557600080fd5b61015b6004808035906020019091905050610803565b604051808273ffffffffffffffffffffffffffffffffffffffff1673ffffffffffffffffffffffffffffffffffffffff16815260200191505060405180910390f35b34156101a857600080fd5b6101d4600480803573ffffffffffffffffffffffffffffffffffffffff16906020019091905050610836565b604051808981526020018860038111156101ea57fe5b60ff1681526020018760028111156101fe57fe5b60ff16815260200186815260200185600181111561021857fe5b60ff168152602001806020018473ffffffffffffffffffffffffffffffffffffffff1673ffffffffffffffffffffffffffffffffffffffff1681526020018381526020018281038252858181546001816001161561010002031660029004815260200191508054600181600116156101000203166002900480156102dd5780601f106102b2576101008083540402835291602001916102dd565b820191906000526020600020905b8154815290600101906020018083116102c057829003601f168201915b5050995050505050505050505060405180910390f35b34156102fe57600080fd5b61038b600480803573ffffffffffffffffffffffffffffffffffffffff1690602001909190803590602001909190803590602001909190803560ff1690602001909190803590602001908201803590602001908080601f016020809104026020016040519081016040528093929190818152602001838380828437820191505050505050919050506108c4565b604051808215151515815260200191505060405180910390f35b34156103b057600080fd5b6103b8610b7d565b604051808273ffffffffffffffffffffffffffffffffffffffff1673ffffffffffffffffffffffffffffffffffffffff16815260200191505060405180910390f35b341561040557600080fd5b610431600480803573ffffffffffffffffffffffffffffffffffffffff16906020019091905050610ba2565b6040518087815260200186600381111561044757fe5b60ff16815260200185600281111561045b57fe5b60ff16815260200184815260200183600181111561047557fe5b60ff16815260200180602001828103825283818151815260200191508051906020019080838360005b838110156104b957808201518184015260208101905061049e565b50505050905090810190601f1680156104e65780820380516001836020036101000a031916815260200191505b5097505050505050505060405180910390f35b341561050457600080fd5b610530600480803573ffffffffffffffffffffffffffffffffffffffff16906020019091905050610ceb565b604051808215151515815260200191505060405180910390f35b60006002600381111561055957fe5b600160003373ffffffffffffffffffffffffffffffffffffffff1673ffffffffffffffffffffffffffffffffffffffff16815260200190815260200160002060010160009054906101000a900460ff1660038111156105b457fe5b1415156105c057600080fd5b600160028111156105cd57fe5b600160003373ffffffffffffffffffffffffffffffffffffffff1673ffffffffffffffffffffffffffffffffffffffff16815260200190815260200160002060010160019054906101000a900460ff16600281111561062857fe5b148061068057503373ffffffffffffffffffffffffffffffffffffffff166000809054906101000a900473ffffffffffffffffffffffffffffffffffffffff1673ffffffffffffffffffffffffffffffffffffffff16145b151561068b57600080fd5b85856000600381111561069a57fe5b600160008473ffffffffffffffffffffffffffffffffffffffff1673ffffffffffffffffffffffffffffffffffffffff16815260200190815260200160002060010160009054906101000a900460ff1660038111156106f557fe5b14151561070157600080fd5b600073ffffffffffffffffffffffffffffffffffffffff166002600083815260200190815260200160002060009054906101000a900473ffffffffffffffffffffffffffffffffffffffff1673ffffffffffffffffffffffffffffffffffffffff1614151561076f57600080fd5b61077e88886001898989610fa0565b151561078957600080fd5b7fde0a31987cd83fbfc5d43ffecccc2987910dd0e67e218dcc8ff4eaae138b1b888888604051808373ffffffffffffffffffffffffffffffffffffffff1673ffffffffffffffffffffffffffffffffffffffff1681526020018281526020019250505060405180910390a160019250505095945050505050565b60026020528060005260406000206000915054906101000a900473ffffffffffffffffffffffffffffffffffffffff1681565b60016020528060005260406000206000915090508060000154908060010160009054906101000a900460ff16908060010160019054906101000a900460ff16908060020154908060030160009054906101000a900460ff169080600401908060050160009054906101000a900473ffffffffffffffffffffffffffffffffffffffff16908060060154905088565b6000600260038111156108d357fe5b600160003373ffffffffffffffffffffffffffffffffffffffff1673ffffffffffffffffffffffffffffffffffffffff16815260200190815260200160002060010160009054906101000a900460ff16600381111561092e57fe5b14151561093a57600080fd5b6001600281111561094757fe5b600160003373ffffffffffffffffffffffffffffffffffffffff1673ffffffffffffffffffffffffffffffffffffffff16815260200190815260200160002060010160019054906101000a900460ff1660028111156109a257fe5b14806109fa57503373ffffffffffffffffffffffffffffffffffffffff166000809054906101000a900473ffffffffffffffffffffffffffffffffffffffff1673ffffffffffffffffffffffffffffffffffffffff16145b1515610a0557600080fd5b858560006003811115610a1457fe5b600160008473ffffffffffffffffffffffffffffffffffffffff1673ffffffffffffffffffffffffffffffffffffffff16815260200190815260200160002060010160009054906101000a900460ff166003811115610a6f57fe5b141515610a7b57600080fd5b600073ffffffffffffffffffffffffffffffffffffffff166002600083815260200190815260200160002060009054906101000a900473ffffffffffffffffffffffffffffffffffffffff1673ffffffffffffffffffffffffffffffffffffffff16141515610ae957600080fd5b610af888886000898989610fa0565b1515610b0357600080fd5b7f193243b76c49651860df399c8e32088c813c47ef6837f29bbe250ca41fa08c078888604051808373ffffffffffffffffffffffffffffffffffffffff1673ffffffffffffffffffffffffffffffffffffffff1681526020018281526020019250505060405180910390a160019250505095945050505050565b6000809054906101000a900473ffffffffffffffffffffffffffffffffffffffff1681565b6000806000806000610bb26111b4565b6000600160008973ffffffffffffffffffffffffffffffffffffffff1673ffffffffffffffffffffffffffffffffffffffff168152602001908152602001600020905080600001548160010160009054906101000a900460ff168260010160019054906101000a900460ff1683600201548460030160009054906101000a900460ff1685600401808054600181600116156101000203166002900480601f016020809104026020016040519081016040528092919081815260200182805460018160011615610100020316600290048015610cce5780601f10610ca357610100808354040283529160200191610cce565b820191906000526020600020905b815481529060010190602001808311610cb157829003601f168201915b505050505090509650965096509650965096505091939550919395565b60008060009054906101000a900473ffffffffffffffffffffffffffffffffffffffff1673ffffffffffffffffffffffffffffffffffffffff163373ffffffffffffffffffffffffffffffffffffffff16141515610d4857600080fd5b3373ffffffffffffffffffffffffffffffffffffffff16600160008473ffffffffffffffffffffffffffffffffffffffff1673ffffffffffffffffffffffffffffffffffffffff16815260200190815260200160002060050160009054906101000a900473ffffffffffffffffffffffffffffffffffffffff1673ffffffffffffffffffffffffffffffffffffffff16141580610e3157503373ffffffffffffffffffffffffffffffffffffffff166000809054906101000a900473ffffffffffffffffffffffffffffffffffffffff1673ffffffffffffffffffffffffffffffffffffffff16145b1515610e3c57600080fd5b6002600160008473ffffffffffffffffffffffffffffffffffffffff1673ffffffffffffffffffffffffffffffffffffffff16815260200190815260200160002060010160006101000a81548160ff02191690836003811115610e9b57fe5b02179055508160026000600160008673ffffffffffffffffffffffffffffffffffffffff1673ffffffffffffffffffffffffffffffffffffffff16815260200190815260200160002060000154815260200190815260200160002060006101000a81548173ffffffffffffffffffffffffffffffffffffffff021916908373ffffffffffffffffffffffffffffffffffffffff1602179055507f74ac0d923622db2a8eebd1f25e1e5ce79512491087bde75536bdfffc567510d882604051808273ffffffffffffffffffffffffffffffffffffffff1673ffffffffffffffffffffffffffffffffffffffff16815260200191505060405180910390a160019050919050565b6000866002600088815260200190815260200160002060006101000a81548173ffffffffffffffffffffffffffffffffffffffff021916908373ffffffffffffffffffffffffffffffffffffffff160217905550610100604051908101604052808781526020016001600381111561101457fe5b815260200186600281111561102557fe5b815260200185815260200184600181111561103c57fe5b81526020018381526020013373ffffffffffffffffffffffffffffffffffffffff16815260200142815250600160008973ffffffffffffffffffffffffffffffffffffffff1673ffffffffffffffffffffffffffffffffffffffff1681526020019081526020016000206000820151816000015560208201518160010160006101000a81548160ff021916908360038111156110d457fe5b021790555060408201518160010160016101000a81548160ff021916908360028111156110fd57fe5b02179055506060820151816002015560808201518160030160006101000a81548160ff0219169083600181111561113057fe5b021790555060a08201518160040190805190602001906111519291906111c8565b5060c08201518160050160006101000a81548173ffffffffffffffffffffffffffffffffffffffff021916908373ffffffffffffffffffffffffffffffffffffffff16021790555060e08201518160060155905050600190509695505050505050565b602060405190810160405280600081525090565b828054600181600116156101000203166002900490600052602060002090601f016020900481019282601f1061120957805160ff1916838001178555611237565b82800160010185558215611237579182015b8281111561123657825182559160200191906001019061121b565b5b5090506112449190611248565b5090565b61126a91905b8082111561126657600081600090555060010161124e565b5090565b905600a165627a7a7230582067b868328ad3a4c8b751d2717715bea9772e31e85c8a7f1e88120273defe6aaf0029",
  "source": "pragma solidity ^0.4.4;\r\n\r\ncontract User{\r\n\taddress public creatorAdmin;\r\n\r\n\tenum Type { User, Admin, SuperAdmin }\r\n\tenum State { NotExist, Pending, Approved, Rejected }\r\n    enum Gender { Male, Female }\r\n\r\n\tstruct UserDetail {\r\n\t\tuint userId;\r\n\t\tState state;\r\n\t\tType level;\r\n\t\tuint age;\r\n\t\tGender gender;\r\n\t\tstring permanentAddress;\r\n\t\taddress createdBy;\r\n\t\tuint createdAt;\r\n\t}\r\n\r\n\tmapping (address => UserDetail) public userDetails;\r\n\tmapping (uint => address) public userIds;\r\n\r\n\tevent RequestedNewAdmin(address _newAdmin, uint256 _newAdminId);\r\n\tevent RequestedNewUser(address _newUser, uint256 _newUserId);\r\n\tevent ApprovedUser(address _approvedUser);\r\n\r\n\tfunction User(uint _userId, uint _age, Gender _gender, string _permanentAddress){\r\n\t\tcreatorAdmin = msg.sender;\r\n\t\tuserIds[_userId] = msg.sender;\r\n\t\tuserDetails[msg.sender] = UserDetail(_userId, State.Approved, Type.SuperAdmin, _age, _gender, _permanentAddress, msg.sender, now);\r\n\t}\r\n\r\n\t// Check if the caller is a Super Admin.\r\n\tmodifier onlySuperAdmins() {\r\n\t\trequire(msg.sender == creatorAdmin);\r\n\t\t_;\r\n\t}\r\n\r\n\t// Check if the caller is either Admin or Super Admin.\r\n\tmodifier onlyAdmins() {\r\n\t\trequire(userDetails[msg.sender].state == State.Approved);\r\n\t\trequire(userDetails[msg.sender].level == Type.Admin || creatorAdmin == msg.sender);\r\n\t\t_;\r\n\t}\r\n\r\n\t// Check if the user has already not been registered.\r\n\t// This is to avoid repeated requests to add the same user.\r\n\tmodifier notRegisteredUser(address _newUser, uint _newUserId) {\r\n\t\trequire(userDetails[_newUser].state == State.NotExist);\r\n\t\trequire(userIds[_newUserId] == address(0));\r\n\t\t_;\r\n\t}\r\n\r\n\t// Request to add new Admin.\r\n\tfunction requestNewAdmin(address _newAdmin, uint _newAdminId, uint _age, Gender _gender, string _pAddress) onlyAdmins notRegisteredUser(_newAdmin, _newAdminId) returns (bool success) {\r\n\t\trequire(addNewUser(_newAdmin, _newAdminId, Type.Admin,_age, _gender, _pAddress ));\r\n\t\tRequestedNewAdmin(_newAdmin, _newAdminId);\r\n\t\treturn true;\r\n\t}\r\n\r\n\t// Request to add new User.\r\n\tfunction requestNewUser(address _newUser, uint _newUserId, uint _age, Gender _gender, string _pAddress) onlyAdmins notRegisteredUser(_newUser, _newUserId) returns (bool success) {\r\n\t\trequire(addNewUser(_newUser, _newUserId, Type.User, _age, _gender, _pAddress));\r\n\t\tRequestedNewUser(_newUser, _newUserId);\r\n\t\treturn true;\r\n\t}\r\n\r\n\t// Common function to create entry in UserDetails Mapping.\r\n\tfunction addNewUser(address _userAddress, uint _userId, Type level, uint _age, Gender _g, string _pAddress) internal returns (bool success) {\r\n\t\tuserIds[_userId] = _userAddress;\r\n\t\tuserDetails[_userAddress] = UserDetail(_userId, State.Pending, level, _age, _g, _pAddress, msg.sender, now);\r\n\t\treturn true;\r\n\t}\r\n\r\n\t// Approve pending requests.\r\n\tfunction approveUser(address _approvedUser) onlySuperAdmins returns (bool success) {\r\n\t  require(userDetails[_approvedUser].createdBy != msg.sender || creatorAdmin == msg.sender);\r\n\t\tuserDetails[_approvedUser].state = State.Approved;\r\n\t\tuserIds[userDetails[_approvedUser].userId] = _approvedUser;\r\n\t\tApprovedUser(_approvedUser);\r\n\t\treturn true;\r\n\t}\r\n\r\n\t// Get the User Details.\r\n\tfunction getUserDetails(address _userAddress) constant returns (uint, State, Type, uint, Gender, string) {\r\n\t\tUserDetail storage user = userDetails[_userAddress];\r\n\t\treturn (user.userId, user.state, user.level, user.age, user.gender, user.permanentAddress);\r\n\t}\r\n}\r\n",
  "sourcePath": "/home/sreeraj/kyc/contracts/User.sol",
  "compiler": {
    "name": "solc",
    "version": "0.4.19+commit.c4cbbb05.Emscripten.clang"
  },
  "schemaVersion": "2.0.0",
  "updatedAt": "2018-03-30T22:01:40.631Z"
}